AMS27042023AM02007250200ADICIONAL POLICIA           
000001014ZEIPP                           TERESA IVOL                     20061981FC00128555964     080027285559648330014POSADAS                       CALLE 115 N° 9164                                                                                   000000000           00000000170000000001
000002014CASTILLO                        LUIS GUSTAVO                    22061985MC00131501408     080020315014086330414GARUPA                        90 VIV MZ Q CASA 02                                                                                 000000000           00000000150000000001
000003014ACEVEDO                         RENZO LEONEL                    02021992MD00135004353     080020350043536330014POSADAS                       AV 170 CASA 6879                                                                                    000000000           00000000140000000001
000004014FERREYRA                        ALFREDO ANTONIO                 06041992MS00135495246     080020354952468336614BDO DE IRIGOYEN               B° ITATI                                                                                            000000000           00000000160000000001
000005054PEREYRA                         DAIANA SELENE                   14121994FS00138137940     080027381379405332814JARDIN AMERICA                B° EL CEIBO MZ 573                                                                                  000000000           00000000180000000001
000006014VIERA                           LUIS ALEJANDRO                  13041995MS00138777418     080020387774182338014ELDORADO                      B° LAS COLINA CALLE PIONEROS KM 5                                                                   000000000           00000000180000000001
000007029RODRIGUEZ                       LUCAS NOEL                      07121996MS00139818660     080020398186606336014OBERA                         LOS HELECHOS S/N                                                                                    000000000           00000000190000000001
000008021DE OLIVERA                      VICTOR JAVIER                   12051997MS00140151611     080020401516116331514L.N ALEM                      RUTA 215 LOTE 17                                                                                    000000000           00000000170000000001
000009029SANCHEZ                         ADRIAN ERNESTO                  27021997MS00140199161     080020401991612330014POSADAS                       AV EVA PERON  3815                                                                                  000000000           00000000180000000001
000010054NUÑEZ DA ROSA                   ANTONIO                         21011998MS00140335559     080020403355594337014PTO IGUAZU                    CALLE URUGUAY 347                                                                                   000000000           00000000190000000001
000011014WESNER                          ELVIS MARTIN                    23082003MS00140343258     080020403432580338014ELDORADO                      KM 6 B° NATCHS                                                                                      000000000           00000000180000000001
000012029CABRERA GAUNA                   MARIA FLORENCIA                 15071997FS00140343867     080027403438672330014POSADAS                       AV SAN MARTIN 2667                                                                                  000000000           00000000180000000001
000013054DUETTE                          LUCAS MIGUEL ANGEL              07081997MS00140414412     080020404144120330014POSADAS                       B° MIGUEL LANUS SOLD ARGINO N° 9435                                                                 000000000           00000000190000000001
000014037DE LARA                         JUAN RAMON                      14101997MS00140840106     080020408401063336614SAN ANTONIO                   B° 1 DE MAYO                                                                                        000000000           00000000190000000001
000015054MENDOZA                         ROCIO MICAELA                   03011998FS00140952199     080027409521997330414GARUPA                        B° ÑUPORA CALLE LOS PINOS E IRUPE                                                                   000000000           00000000180000000001
000016029SANABRIA                        TAMARA JIMENA                   05031998FS00141049062     080027410490620330014POSADAS                       B° MIGUEL LANUS                                                                                     000000000           00000000190000000001
000017029CACERES                         ENZO NERI                       15051998MS00141091496     080020410914965330014POSADAS                       CALLE 31                                                                                            000000000           00000000190000000001
000018014GRASEN                          DORA ROMILDA                    03121997FS00141091660     080027410916601336114CAMPO RAMON                   VILLA UNION                                                                                         000000000           00000000190000000001
000019014METNER                          ALEXIS BRAIAN ISMAEL            30031998MS00141419213     080020414192131336014OBERA                         B° KRAUSE ESC 3                                                                                     000000000           00000000170000000001
000020014VILLAREAL                       CARLOS                          28031999MS00141503155     080020415031557330014POSADAS                       AV. URQUIZA 5413                                                                                    000000000           00000000200000000001
000021014LANZI                           EZEQUIEL JOSE MARIA             11011999MS00141694798     080020416947989330014POSADAS                       CALLE 105 N°2376                                                                                    000000000           00000000190000000001
000022014MACHUCA                         LISSET NATIVIDAD                23021999FS00141696012     080027416960122330714SAN JOSE                      AV. CENTENARIO S/N                                                                                  000000000           00000000170000000001
000023054BENITEZ                         MATIAS NICOLAS                  09011999MS00141700120     080020417001205330014POSADAS                       B° SAN ISIDRO MZ 5 CASA 10                                                                          000000000           00000000190000000001
000024054VERA                            ERIKA DANIELA                   08031999FS00141761149     080027417611490330014POSADAS                       B° A 3-2 MZ 9 CASA 08                                                                               000000000           00000000200000000001
000025037MOREYRA FRANCO                  SANTIAGO ARIEL                  08041999MS00141761423     080020417614231330014POSADAS                       CH 153 CALLE 3 CASA 29                                                                              000000000           00000000190000000001
000026054RIOS                            VICTOR ALEJANDRO                02031999MS00141787915     080020417879154338014ELDORADO                      B° 4A MZ 262 CASA 6                                                                                 000000000           00000000180000000001
000027018GOIN                            JOEL IAN                        09061999MS00141788318     080020417883186336214ALBA POSSE                    SANTA RITA                                                                                          000000000           00000000190000000001
000028077ALEGRE                          CARLOS ALBERTO                  03031999MS00141822345     080020418223457330014POSADAS                       TARELLI S/N MZ 247 CANDELARIA                                                                       000000000           00000000190000000001
000029037GOMEZ                           YONATAN ELIAS                   11111999MS00142220287     080020422202871335014APOSTOLES                     B° STA BARBARA CALLE FORMOSA 1289                                                                   000000000           00000000190000000001
000030037PALACIOS                        DAMARIS BELEN                   18012000FS00142288327     080023422883274330014POSADAS                       AV. AGUADO                                                                                          000000000           00000000190000000001
000031021CALISDRO                        RODRIGO NICOLAS                 14022000MS00142302534     080020423025345330014POSADAS                       B° JARDIN CALLE LAS TACUARAS                                                                        000000000           00000000180000000001
000032054PAREDES                         FERNANDO ABEL                   24022000MS00142302896     080020423028964330014POSADAS                       LAS BROMELIAS 10642 ITAEMBE GUAZU                                                                   000000000           00000000180000000001
000033054BAEZ                            RODRIGO JULIAN                  06032000MS00142466624     080020424666247330014POSADAS                       B° POLICIAL ITAEMBE MINI                                                                            000000000           00000000180000000001
000034029RAMIREZ                         MELANIE BELEN                   11032000FS00142466653     080027424666535330414GARUPA                        GUACURARI Y SANTA FE B° FATIMA                                                                      000000000           00000000190000000001
000035037MUSCHALEK                       FACUNDO EZEQUIEL                30032000MS00142514374     080020425143744338014ELDORADO                      ALTE BROWN Y LAS BAAMAS                                                                             000000000           00000000190000000001
000036029NUÑEZ                           ADRIAN DAVID                    20072000MS00142760649     080020427606490330014POSADAS                       B°SANTA CATALINA CALLE 34 A 3079                                                                    000000000           00000000180000000001
000037014LENCINA                         VERONICA ANDREA                 13092000FS00142811062     080027428110620330014POSADAS                       CH 116 CASA 5124                                                                                    000000000           00000000190000000001
000038037MAYOL                           DAMIAN ANDRES                   22082000MS00142812119     080020428121199330014POSADAS                       CH 247 CASA 5345                                                                                    000000000           00000000190000000001
000039037ARMONICO                        CLAUDIO AGUSTIN                 14092000MS00142965709     080020429657092336014OBERA                         JOSE HERNANDIA 1863                                                                                 000000000           00000000190000000001
000040037AGUIRRE                         DIEGO FACUNDO                   22112000MS00142965962     080020429659621336014OBERA                         B° LAS PALMAS                                                                                       000000000           00000000180000000001
000041029BRITEZ                          FLORENCIA AGUSTINA              16112000FS00143024731     080027430247315330414GARUPA                        LOS CLAVELES Y SALTOS DEL MOCONA                                                                    000000000           00000000190000000001
000042054POHL                            ERIK ANDRES                     01032001MS00143154878     080020431548788336114FLORENTINO AMEGHINO           KM 8 PANAMBI                                                                                        000000000           00000000190000000001
000043037ENGELMANN                       FERNANDO ESEQUIEL               18062001MS00143420738     080020434207380336114CAMPO RAMON                   ARROYO ACARGUA S/N                                                                                  000000000           00000000190000000001
000044037ANDERLONI                       JUAN PABLO                      08122000MS00143618967     080020436189673338014ELDORADO                      AV SAN MARTIN 1562 KM 9                                                                             000000000           00000000190000000001
000045054KUCHARCZYK                      NICOLAS ARMANDO                 04042002MS00144149903     080020441499036336214CAMPO GRANDE                  LOTE 394                                                                                            000000000           00000000190000000001
000046029BOGADO                          DAMARIS YOHANA                  22082002FS00144389221     080023443892214330014POSADAS                       B° A-4 MZ 227 CASA 12                                                                               000000000           00000000190000000001
000047054VELOZO AHMANN                   JOSE CHRISTOPHER                14012003MS00145340222     080020453402224330014POSADAS                       FORMOSA 2630                                                                                        000000000           00000000200000000001
000048054MACHADO                         FRANCO DANIEL                   05121999MS00147594837     080020475948379330314GARUPA                        AV JOSE RAMALLO Y BAZARABA                                                                          000000000           00000000190000000001
000049037PIOTROWSKI                      ADRIANA GABRIELA                23042000FS00142 615577    080027426155775330014POSADAS                       30 VIV MZ A CASA 07                                                                                 000000000           00000000180000000001
