AMS13042023AM02007250200ADICIONAL POLICIA           
000001014ALVEZ                           FERNANDO RENEC                  29121987MS00133425128     080020334251285330014POSADAS                       AV PALO ROSA 12434                                                                                  000000000           00000137870000000001
000002029BOBEDA                          MARTIN HORACIO                  20042000MS00142667401     080020426674018330414GARUPA                        B° STA HELENA MZ B CASA 01                                                                          000000000           00000196100000000001
000003001SILVA                           JUAN MANUEL                     11011999MS00141617969     080020416179698330414GARUPA                        B° 90 VIV MZ 11 CASA 15                                                                             000000000           00000189410000000001
000004029RAMIREZ                         NAOMI MARCELA                   05062000FS00141306042     080027413060422330914CERRO CORA                    MZ 34 CERRO CORA                                                                                    000000000           00000199300000000001
000005037LOPEZ                           MARIO ALBERTO                   11061998MS00141273040     080020412730403330414GARUPA                        MZ B CASA 04 B° 140 VIV                                                                             000000000           00000198080000000001
000006037ACOSTA                          EMILIO JOSE                     10052000MS00142667608     080020426676088330014POSADAS                       B°140 VIV MZ C CASA 05                                                                              000000000           00000195370000000001
000007037ANTUNES                         ELISANDRO ARCENIO               09072001MS00143419282     080020434192820336214CAMPO GRANDE                  PARAJE CHEPOYE                                                                                      000000000           00000195650000000001
000008037BENITEZ                         ALAN AGUSTIN                    30061998MS00141302105     080020413021058330414GARUPA                        CALLE BENISNO CARDOZO S/N                                                                           000000000           00000195920000000001
000009037CENTURION                       MIRIAN ADRIANA                  23102001FS00143702388     080027437023889330014POSADAS                       CALLE GIOCHINO 1267                                                                                 000000000           00000196480000000001
000010029PEREYRA                         LOURDES ITATI                   04061999FS00141882392     080027418823920330814CANDELARIA                    MZ 420 H LOTE 4 B° FATIMA                                                                           000000000           00000199040000000001
000011014VIÑUK                           MIGUEL ANGEL                    22031995MS00138566373     080020385663731330414FACHINAL                      COLONIA FACHINAL                                                                                    000000000           00000189880000000001
000012014VILLALBA                        JULIO CESAR JESUS               23112000MS00143023438     080020430234383330014POSADAS                       CH 118 MZ P CASA 21 CALLE 117                                                                       000000000           00000200290000000001
000013037SOLIS                           JORGE FERNANDO                  24041995MS00138778106     080020387781065330014POSADAS                       CH 144 MZ J CASA 04 CALLE 90                                                                        000000000           00000189490000000001
000014037BUGS                            MARIANA ISABEL                  01011999FS00141617107     080027416171071336014OBERA                         B° NORTE CANAL TORTA 445                                                                            000000000           00000186230000000001
000015037RAMIREZ                         DAXI ALEXANDER                  04101998MS00141509651     080020415096519336014OBERA                         ROCA 2080                                                                                           000000000           00000199250000000001
000016054ESCOBAR                         VERONICA NOEMI                  18031998FS00141048611     080027410486119330414GARUPA                        B° 140 VIV MZ G CASA 10                                                                             000000000           00000197090000000001
000017029CACERES                         ENZO NERI                       15051998MS00141091496     080020410914965330014POSADAS                       CALLE 31 A N° 4346                                                                                  000000000           00000196330000000001
000018054PEREIRA                         RITA AGUSTINA                   12071999FS00142085647     080023420856474330014POSADAS                       B° SANTA RITA CH 117                                                                                000000000           00000193960000000001
000019037BAREIRO DEDIEU                  YANATAHAN ALEXIS                18091997MS00139641387     080020396413877337014PTO IGUAZU                    B° 25 VIV                                                                                           000000000           00000195780000000001
