AMS13042023AM02007250200ADICIONAL POLICIA           
000001014ALVEZ                           FERNANDO RENEC                  29121987MS3342512820334251285  33000000000000000000000                                                                                                                                  37646684391378700           00000000000000000001
000002029BOBEDA                          MARTIN HORACIO                  20042000MS4266740120426674018  33040000000000000000000                                                                                                                                  37646362641961000           00000000000000000001
000003001SILVA                           JUAN MANUEL                     11011999MS4161796920416179698  33040000000000000000000                                                                                                                                  37641841421894100           00000000000000000001
000004029RAMIREZ                         NAOMI MARCELA                   05062000FS4130604227413060422  33090000000000000000000                                                                                                                                  37642962011993000           00000000000000000001
000005037LOPEZ                           MARIO ALBERTO                   11061998MS4127304020412730403  33040000000000000000000                                                                                                                                  37647368821980800           00000000000000000001
000006037ACOSTA                          EMILIO JOSE                     10052000MS4266760820426676088  33000000000000000000000                                                                                                                                  37641644421953700           00000000000000000001
000007037ANTUNES                         ELISANDRO ARCENIO               09072001MS4341928220434192820  33620000000000000000000                                                                                                                                  37553081981956500           00000000000000000001
000008037BENITEZ                         ALAN AGUSTIN                    30061998MS4130210520413021058  33040000000000000000000                                                                                                                                  37646675361959200           00000000000000000001
000009037CENTURION                       MIRIAN ADRIANA                  23102001FS4370238827437023889  33000000000000000000000                                                                                                                                  37648917951964800           00000000000000000001
000010029PEREYRA                         LOURDES ITATI                   04061999FS4188239227418823920  33080000000000000000000                                                                                                                                  37642312091990400           00000000000000000001
000011014VIÑUK                           MIGUEL ANGEL                    22031995MS3856637320385663731  33040000000000000000000                                                                                                                                  37646216431898800           00000000000000000001
000012014VILLALBA                        JULIO CESAR JESUS               23112000MS4302343820430234383  33000000000000000000000                                                                                                                                  37650797332002900           00000000000000000001
000013037SOLIS                           JORGE FERNANDO                  24041995MS3877810620387781065  33000000000000000000000                                                                                                                                  37641395851894900           00000000000000000001
000014037BUGS                            MARIANA ISABEL                  01011999FS4161710727416171071  33600000000000000000000                                                                                                                                  37556650751862300           00000000000000000001
000015037RAMIREZ                         DAXI ALEXANDER                  04101998MS4150965120415096519  33600000000000000000000                                                                                                                                  37552082311992500           00000000000000000001
000016054ESCOBAR                         VERONICA NOEMI                  18031998FS4104861127410486119  33040000000000000000000                                                                                                                                  37651127381970900           00000000000000000001
000017029CACERES                         ENZO NERI                       15051998MS4109149620410914965  33000000000000000000000                                                                                                                                  37651018551963300           00000000000000000001
000018054PEREIRA                         RITA AGUSTINA                   12071999FS4208564723420856474  33000000000000000000000                                                                                                                                  37649084011939600           00000000000000000001
000019037BAREIRO DEDIEU                  YANATAHAN ALEXIS                18091997MS3964138720396413877  33700000000000000000000                                                                                                                                  37576227361957800           00000000000000000001
000000000                                                                00000000  000             000000000000000000000                                                                                                                                  000000000           00000000000000000001
000000000                                                                00000000  000             000000000000000000000                                                                                                                                  000000000           00000000000000000001
