AMS29052023AM02007250200ADICIONAL POLICIA           
000001054SILVA                           FLORENCIA YASMIN                23062003FS00144841963     080027448419636330014POSADAS                       B° SANTA RITA CALLE 92 Y 133 A CASA 2                                                               000000000           00000199870000000001
000002014MACHADO                         LUCILA MABEL                    12061993FC00137589983     080027375899839330014POSADAS                       RUTA 12 Y CALLE 146 CASA 7162                                                                       000000000           00000147840000000001
000003021MATOZO                          KEVIN GABRIEL                   07021999MC00141305148     080020413051488332814JARDIN AMERICA                CALLE ISLAS MALVINAS S/N° PUERTO LEONI                                                              000000000           00000188140000000001
000004029RAMBO                           JEREMIAS EXEQUIEL               04051999MS00141633290     080020416332909336114PANAMBI                       KM 8                                                                                                000000000           00000194220000000001
000005014FERNANDEZ                       ROBERTO JAVIER                  23041982MC00129358481     080020293584810330014POSADAS                       B° SAN ISIDRO CALLE 99 CASA 9269                                                                    000000000           00000102950000000001
000006014BIANCHI                         ANTONIO ANSELMO                 31011987MS00132608706     080020326087069330814CANDELARIA                    BARRIO SAN JORGE MZ 173                                                                             000000000           00000139140000000001
000007037PINTO SAMPAIO                   JULIANA OLIVIA                  04091998FS00141294544     080027412945447336014OBERA                         CALLE LOS ANDES Y SANTIAGO CABRAL                                                                   000000000           00000182390000000001
000008001SILVA                           GUIDO JORGE ANTONIO             11122000MS00142965598     080020429655987336014OBERA                         B° YERBAL VIEJO ESC 19 P.B.                                                                         000000000           00000194820000000001
000009054TAUBE                           YOHEIL LEONARDO                 11062002MS00144013197     080020440131973336014OBERA                         PERGAMINO 1991                                                                                      000000000           00000200020000000001
000010054VELAZQUEZ                       LUCAS DANIEL                    13092000MS00142763070     080020427630707337014PUERTO IGUAZU                 B° VILLA ALTA CALLE                                                                                 000000000           00000200120000000001
000011021MEZA                            JULIO SEBASTIAN                 23041997MS00140338078     080020403380785335014APOSTOLES                     WARENICYA Y NICOLAS NAHIRÑAK                                                                        000000000           00000182200000000001
000012014DOWBUSZ                         TAMARA MICAELA                  19071996FS00139725054     080027397250542330414GARUPA                        "B° 90 VIVIENDAS MZ ""L"" CASA 7"                                                                   000000000           00000155050000000001
000013029PEREYRA                         MAURO JAVIER SULPICIO           02022002MS00143946318     080020439463180330014POSADAS                       B° A 3-2 MZ 20 CASA 1                                                                               000000000           00000199050000000001
000014014BORDON                          JUAN EZEQUIEL                   17111997MC00141304731     080020413047316330014POSADAS                       "B° SAN GERARDO CASA 260 CALLE 68 ""A"""                                                            000000000           00000167360000000001
000015021MARTINEZ                        ADRIANA ESTEFANIA               30121998FS00141694565     080027416945652330814CANDELARIA                    B° BELGRANO MZ 61                                                                                   000000000           00000188050000000001
000016029MORAND                          ARIANA MAGALI                   23021998FS00141303419     080027413034197330014POSADAS                       CH 232 CALLE POSADAS N° 5662                                                                        000000000           00000188320000000001
000017029KOHLS                           YOANA RAFAELA                   22122000FS00143120506     080027431205063330014POSADAS                       AV LOPEZ Y PLANES 6040                                                                              000000000           00000197840000000001
000018021TEBES                           JEREMIAS BALTAZAR               04112000MS00143024329     080020430243293330014POSADAS                       B° SAN JOPRGE MZ 20 CASA 02                                                                         000000000           00000189620000000001
000019021ALARIS YAÑUK                    MARIA DEL ROSARIO               02061999FS00141995311     080027419953119330614SAN JOSE                      EDELMIRO DUARTE N° 307                                                                              000000000           00000190490000000001
000020037BENITEZ                         FEDERICO ROMAN                  03112000MS00143023997     080020430239970330014POSADAS                       B° 100 VIV MZ 147 CASA 13                                                                           000000000           00000195960000000001
000021014ESPINDOLA                       VALERIA GISEL                   21041999FS00141822445     080027418224458330014POSADAS                       AV ITUZAINGO Y CALLE 135                                                                            000000000           00000176520000000001
000022037CASCO                           GONZALO ISMAEL                  03092001MS00143546898     080020435468986335514CONCEPCION DE LA SIERRA       CALLE ANDRESITO                                                                                     000000000           00000196450000000001
000023016QUEVEDO                         JOSE LUIS                       08042000MS00142515120     080020425151208335514CONCEPCION DE LA SIERRA       B° POZO PUBLICO                                                                                     000000000           00000194190000000001
000024014ACOSTA                          GERMAN GUSTAVO                  20031995MS00138775840     080020387758403330014POSADAS                       B° ITAEMBE GUAZU AV PINO P.                                                                         000000000           00000167010000000001
000025054PEREYRA                         AGUSTINA JAQUELIN               21111997FS00140897316     080027408973169330014POSADAS                       CONGRESO DE TUCUMAN Y CALLE 49 MIGUEL LANUS                                                         000000000           00000188670000000001
000026029BARRETO                         ROCIO BELEN                     24031998FS00141031735     080023410317354330014POSADAS                       CH 117 CALLE 96 CASA 6035                                                                           000000000           00000185920000000001
000027014ORUE                            AXEL ADRIAN                     30071997MS00140412504     080020404125045330014POSADAS                       CH 240 CALLE 3 CASA 19                                                                              000000000           00000177390000000001
000028037CENA                            LUIS ANTONIO                    01121998MS00141631425     080020416314250330814CANDELARIA                    B° 20 DE JUNIO                                                                                      000000000           00000196470000000001
000029021ALVEZ                           KIMBERLY DAIANA                 03012000FS00142381121     080027423811213330414GARUPA                        B° MADARIAGA CALLE 194 CASA 9747                                                                    000000000           00000180790000000001
000030021OPRIEL                          EZEQUIEL HERNAN                 01101999MS00142086671     080020420866713330414GARUPA                        B° SANTA CLARA II CALLE ARIS DEL VALLE                                                              000000000           00000182310000000001
000031014RAMIREZ                         NANCY EVELYN                    25031981FS00128353943     080027283539437330014POSADAS                       B° ITAEMBE GUAZU CALLE LAS DALIAS N° 11.304                                                         000000000           00000123600000000001
000032014CABALLERO                       MARIA FLORENCIA                 01021996FS00139528812     080027395288127330014POSADAS                       AV ZAPIOLA N° 6816                                                                                  000000000           00000167420000000001
000033014REYNA                           MARIA EUGENIA                   29121986FC00132608503     080027326085036330014POSADAS                       B° ITAEMBE MINI CALLE 166 MZ 34 CASA 5                                                              000000000           00000165460000000001
000034037CLOSS                           MAIRA LINA                      19022002FS00144012811     080023440128114330414GARUPA                        "B° SANTA CRUZ MZ ""H"" 174 CASA 18"                                                                000000000           00000196550000000001
000035029MERELES                         MARIANA MICAELA                 22072000FS00142761185     080027427611855330014POSADAS                       AV ZABALA 2789                                                                                      000000000           00000188220000000001
000036037ESPINDOLA                       MARCELO GASTON                  14112000MS00143023481     080020430234812337014PUERTO IGUAZU                 B° VILLA TACUARA                                                                                    000000000           00000188560000000001
000037054NUÑEZ                           RODRIGO LEONARDO                02112001MS00144012261     080020440122613337014PUERTO IGUAZU                 CALLE COSTA RICA S/N°                                                                               000000000           00000193660000000001
000038021ESQUIVEL                        FLORENCIA LEONOR                14051998FS00141231867     080027412318671337814PUERTO ESPERANZA              AV 20 DE JUNIO S/N°                                                                                 000000000           00000181490000000001
000039021DE LA CUESTA                    MAXIMILIANO ARIEL               27031998MS00141031829     080020410318297337814PUERTO ESPERANZA              CALLE CORDOBA S/N°                                                                                  000000000           00000181290000000001
000040029SAMUDIO                         MILAGROS YANELA                 18052001FS00143528505     080027435285053337814PUERTO ESPERANZA              CALLE MARIO MARTINEZ S/N°                                                                           000000000           00000199750000000001
000041054GONZALEZ                        DAMIAN DARIO                    29052000MS00142716623     080020427166237337014PUERTO IGUAZU                 CALLE MARMELERO S/N|°                                                                               000000000           00000187390000000001
000042014CASTILLO                        ADRIAN ALEJANDRO                19041999MS00141878374     080020418783746337614WANDA                         B° LAPACHILLO CALLE TUCUMAN S/N°                                                                    000000000           00000176240000000001
000043014BENITEZ                         JOAQUIN EDUARDO                 29011995MS00138565842     080020385658428337814PUERTO ESPERANZA              B° ALEGRE                                                                                           000000000           00000176050000000001
000044021ESPINOZA                        JEAN LUCAS                      05081997MS00140342699     080020403426998337814PUERTO ESPERANZA              CALLE SAN LUIS S/N°                                                                                 000000000           00000181470000000001
000045054OLAZAR                          NERIO                           13051997MS00140043043     080020400430439337814PUERTO ESPERANZA              CALLE SAN FRANCISCO                                                                                 000000000           00000193720000000001
000046014SANTA CRUZ                      KATERIN FABIANA                 28011999FS00141305257     080027413052577337814PUERTO ESPERANZA              B° 8 DE DICIEMBRE ANT. ARG. S/N°                                                                    000000000           00000184340000000001
000047014VELAZQUEZ                       ISAIAS                          01011993MS00137582365     080023375823659337014PUERTO IGUAZU                 CALLE VERA PEÑALOZA Y RUCCI                                                                         000000000           00000170240000000001
000048014GALEANO                         DAVID ARMANDO                   12081989MC00134453107     080020344531073337014PUERTO LIBERTAD               B° SANTO DOMINGO, CALLE VARELA S/N°                                                                 000000000           00000171600000000001
000049037CASTILLO PERALTA                CESAR GABRIEL                   02122000MS00143071493     080020430714938330014POSADAS                       CALLE 129 MZ 20 B° SAN GERARDO                                                                      000000000           00000196460000000001
000050054VERA                            CLARA YOHANA                    20101999FS00142205236     080023422052364330014POSADAS                       "B° 8 DE ABRIL CALLE 172 ""A"" N° 6069"                                                             000000000           00000200160000000001
000051014FULCO                           FELIPE ALEJANDRO                26051984MC00130619604     080023306196049330014POSADAS                       CH 227 CALLE 124 Y 63 N° 3108                                                                       000000000           00000134000000000001
