AMS11042023AM02007250200ADICIONAL POLICIA           
000001014ALVEZ                           FERNANDO RENEC                  29121987MS00133425128     080020334251285330000AV PALO ROSA 12434                                                                                                                000000000           00000000000000000001
000002029BOBEDA                          MARTIN HORACIO                  20042000MS00142667401     080020426674018330400B° STA HELENA MZ B CASA 01                                                                                                        000000000           00000000000000000001
000003001SILVA                           JUAN MANUEL                     11011999MS00141617969     080020416179698330400B° 90 VIV MZ 11 CASA 15                                                                                                           000000000           00000000000000000001
000004029RAMIREZ                         NAOMI MARCELA                   05062000FS00141306042     080027413060422330900MZ 34 CERRO CORA                                                                                                                  000000000           00000000000000000001
000005037LOPEZ                           MARIO ALBERTO                   11061998MS00141273040     080020412730403330400MZ B CASA 04 B° 140 VIV                                                                                                           000000000           00000000000000000001
000006037ACOSTA                          EMILIO JOSE                     10052000MS00142667608     080020426676088330000B°140 VIV MZ C CASA 05                                                                                                            000000000           00000000000000000001
000007037ANTUNES                         ELISANDRO ARCENIO               09072001MS00143419282     080020434192820336200PARAJE CHEPOYE                                                                                                                    000000000           00000000000000000001
000008037BENITEZ                         ALAN AGUSTIN                    30061998MS00141302105     080020413021058330400CALLE BENISNO CARDOZO S/N                                                                                                         000000000           00000000000000000001
000009037CENTURION                       MIRIAN ADRIANA                  23102001FS00143702388     080027437023889330000CALLE GIOCHINO 1267                                                                                                               000000000           00000000000000000001
000010029PEREYRA                         LOURDES ITATI                   04061999FS00141882392     080027418823920330800MZ 420 H LOTE 4 B° FATIMA                                                                                                         000000000           00000000000000000001
000011014VIÑUK                           MIGUEL ANGEL                    22031995MS00138566373     080020385663731330400COLONIA FACHINAL                                                                                                                  000000000           00000000000000000001
000012014VILLALBA                        JULIO CESAR JESUS               23112000MS00143023438     080020430234383330000CH 118 MZ P CASA 21 CALLE 117                                                                                                     000000000           00000000000000000001
000013037SOLIS                           JORGE FERNANDO                  24041995MS00138778106     080020387781065330000CH 144 MZ J CASA 04 CALLE 90                                                                                                      000000000           00000000000000000001
000014037BUGS                            MARIANA ISABEL                  01011999FS00141617107     080027416171071336000B° NORTE CANAL TORTA 445                                                                                                          000000000           00000000000000000001
000015037RAMIREZ                         DAXI ALEXANDER                  04101998MS00141509651     080020415096519336000ROCA 2080                                                                                                                         000000000           00000000000000000001
000016054ESCOBAR                         VERONICA NOEMI                  18031998FS00141048611     080027410486119330400B° 140 VIV MZ G CASA 10                                                                                                           000000000           00000000000000000001
000017029CACERES                         ENZO NERI                       15051998MS00141091496     080020410914965330000CALLE 31 A N° 4346                                                                                                                000000000           00000000000000000001
000018054PEREIRA                         RITA AGUSTINA                   12071999FS00142085647     080023420856474330000B° SANTA RITA CH 117                                                                                                              000000000           00000000000000000001
000019037BAREIRO DEDIEU                  YANATAHAN ALEXIS                18091997MS00139641387     080020396413877337000B° 25 VIV                                                                                                                         000000000           00000000000000000001
000020054MIÑO                            EDUARDO GASTON                  10031998MS00141017723     080020410177235330000ALM. BROWN 5552                                                                                                                   000000000           00000000000000000001
