AMS19042023AM02007250200ADICIONAL POLICIA           
000001029JONATHAN                        GASTON LENCINA                  25091988MS00133852918     080020338529180336414Aristobulo del Valle          Av. Cafetales Campó grande                                                                          000000000           00000120590000000001
000002029RATTI                           AXEL OLAF                       19012001MS00143070949     080020430709497333214Capiovi                       B° 92 Vivienda                                                                                      000000000           00000199340000000001
000003037MARQUEZ                         CARLOS SANTIAGO                 01041998MS00141155854     080020411558542336114CAMPO RAMON                   CAMPO RAMON S/N                                                                                     000000000           00000193130000000001
000004037DA ROSA                         MARIA ISABEL                    03041998FS00141091390     080027410913904335714SAN JAVIER                    B° SAN JUAN CALLE JACOBA LANUZZA                                                                    000000000           00000181240000000001
000005014CHAGAS                           ELIAS MARCOS                   25041996MS00139528506     080020395285069335014APOSTOLES                     B° LAS RUINAS CALLE SAN LORENZO CASI SAN JUAN                                                       000000000           00000167580000000001
000006037MARTINEZ                        MATIAS EXEQUIEL                 08012000MS00142302532     080020423025329331714BONPLAND                      MZ 15 BONPLAND                                                                                      000000000           00000198330000000001
000007014MEDINA                          ANA BELEN                       20021991FS00135006391     080027350063914335014APOSTOLES                     B° CRUZ DEL GALLO MZ 612 CASA 10                                                                    000000000           00000164200000000001
000008014MACENA                          MICAELA VANESA                  07111989MC00134819914     080027348199140335014APOSTOLES                     CALLE MIGUEL ZUBRZYCKI 468                                                                          000000000           00000124680000000001
000009014ROJAS                           DANIELA SOLEDAD                 21042000FS00142381584     080027423815847331514L.N.ALEM                      CALLE TAMBOR DE TACUARI 626                                                                         000000000           00000189140000000001
000010054PEREZ                           CAMILA MILAGROS                 13122000FS00143546804     080027435468042331514L.N.ALEM                      B° SAN MARTIN CALLE STA CRUZ N° 25                                                                  000000000           00000193980000000001
000000000                                                                00000000  000             000000000000000000000                                                                                                                                  000000000           00000000000000000001
