000FLORENCIA YASMIN                23/06/2003                      0S1448419638            27448419636000000000008080330014POSADAS                       B SANTA RITA CALLE 19                                                                               000000000           00000199870000000001
000LUCILA MABEL                    12/06/1993                      0C1375899838            27375899839000000000008080330014POSADAS                       RUTA 12 Y CALLE 146                                                                                 000000000           00000147840000000001
000KEVIN GABRIEL                   07/02/1999                      0C1413051488            20413051488000000000008080332814JARDIN AMERICA                CALLE ISLAS MALVINAS                                                                                000000000           00000188140000000001
000GIMENA ALICIA                   01/12/1997                      0S1408738468            27408738461000000000008080330414GARUPA                        140 viviendas mz a                                                                                  000000000           00000188120000000001
000JEREMIAS EXEQUIEL               04/05/1999                      0S1416332908            20416332909000000000008080336114PANAMBI                       KM 8                                                                                                000000000           00000194220000000001
000ROBERTO JAVIER                  23/04/1982                      0C1293584818            20293584810000000000008080330014POSADAS                       B SAN ISIDRO CALLE                                                                                  000000000           00000102950000000001
000ANTONIO ANSELMO                 31/01/1987                      0S1326087068            20326087069000000000008080330814CANDELARIA                    BARRIO SAN JORGE MZ 173                                                                             000000000           00000139140000000001
000JULIANA OLIVIA                  04/09/1998                      0S1412945448            27412945447000000000008080336014OBERA                         CALLE LOS ANDES                                                                                     000000000           00000182390000000001
000GUIDO JORGE ANTONIO             11/12/2000                      0S1429655988            20429655987000000000008080336014OBERA                         B YERBAL VIEJO ESC 19 P.B.                                                                          000000000           00000194820000000001
000YOHEIL LEONARDO                 11/06/2002                      0S1440131978            20440131973000000000008080336014OBERA                         PERGAMINO 1991                                                                                      000000000           00000200020000000001
000LUCAS DANIEL                    13/09/2000                      0S1427630708            20427630707000000000008080337014PUERTO IGUAZU                 B VILLA ALTA CALLE                                                                                  000000000           00000200120000000001
000JULIO SEBASTIAN                 23/04/1997                      0S1403380788            20403380785000000000008080335014APOSTOLES                     WARENICYA Y N NAHIRÑAK                                                                              000000000           00000182200000000001
000TAMARA MICAELA                  19/07/1996                      0S1397250548            27397250542000000000008080330414GARUPA                        B 90 VIVIENDAS MZ L CASA 7                                                                          000000000           00000155050000000001
000MAURO JAVIER SULPICIO           02/02/2002                      0S1439463188            20439463180000000000008080330014POSADAS                       B A 3-2 MZ 20 CASA 1                                                                                000000000           00000199050000000001
000JUAN EZEQUIEL                   17/11/1997                      0C1413047318            20413047316000000000008080330014POSADAS                       B SAN GERARDO CASA 260                                                                              000000000           00000167360000000001
000ADRIANA ESTEFANIA               30/12/1998                      0S1416945658            27416945652000000000008080330814CANDELARIA                    B BELGRANO MZ 61                                                                                    000000000           00000188050000000001
000ARIANA MAGALI                   23/02/1998                      0S1413034198            27413034197000000000008080330014POSADAS                       CH 232 CALLE POSADAS N 5662                                                                         000000000           00000188320000000001
000YOANA RAFAELA                   22/12/2000                      0S1431205068            27431205063000000000008080330014POSADAS                       AV LOPEZ Y PLANES 6040                                                                              000000000           00000197840000000001
000JEREMIAS BALTAZAR               04/11/2000                      0S1430243298            20430243293000000000008080330014POSADAS                       B SAN JOPRGE MZ 20 CASA 02                                                                          000000000           00000189620000000001
000MARIA DEL ROSARIO               02/06/1999                      0S1419953118            27419953119000000000008080330614SAN JOSE                      EDELMIRO DUARTE N 307                                                                               000000000           00000190490000000001
000FEDERICO ROMAN                  03/11/2000                      0S1430239978            20430239970000000000008080330014POSADAS                       B 100 VIV MZ 147 CASA 13                                                                            000000000           00000195960000000001
000VALERIA GISEL                   21/04/1999                      0S1418224458            27418224458000000000008080330014POSADAS                       AV ITUZAINGO Y CALLE 135                                                                            000000000           00000176520000000001
000GONZALO ISMAEL                  03/09/2001                      0S1435468988            20435468986000000000008080335514CONCEPCION DE LA SIERRA       CALLE ANDRESITO                                                                                     000000000           00000196450000000001
000JOSE LUIS                       08/04/2000                      0S1425151208            20425151208000000000008080335514CONCEPCION DE LA SIERRA       B POZO PUBLICO                                                                                      000000000           00000194190000000001
000GERMAN GUSTAVO                  20/03/1995                      0S1387758408            20387758403000000000008080330014POSADAS                       B ITAEMBE GUAZU AV PINO P.                                                                          000000000           00000167010000000001
000AGUSTINA JAQUELIN               21/11/1997                      0S1408973168            27408973169000000000008080330014POSADAS                       CONGRESO DE TUCUMAN                                                                                 000000000           00000188670000000001
000ROCIO BELEN                     24/03/1998                      0S1410317358            23410317354000000000008080330014POSADAS                       CH 117 CALLE 96 CASA 6035                                                                           000000000           00000185920000000001
000AXEL ADRIAN                     30/07/1997                      0S1404125048            20404125045000000000008080330014POSADAS                       CH 240 CALLE 3 CASA 19                                                                              000000000           00000177390000000001
000LUIS ANTONIO                    01/12/1998                      0S1416314258            20416314250000000000008080330814CANDELARIA                    B 20 DE JUNIO                                                                                       000000000           00000196470000000001
000KIMBERLY DAIANA                 03/01/2000                      0S1423811218            27423811213000000000008080330414GARUPA                        B MADARIAGA CALLE 194 CASA 9747                                                                     000000000           00000180790000000001
000EZEQUIEL HERNAN                 01/10/1999                      0S1420866718            20420866713000000000008080330414GARUPA                        B SANTA CLARA II                                                                                    000000000           00000182310000000001
000NANCY EVELYN                    05/03/1981                      0S1283539438            27283539437000000000008080330014POSADAS                       CALLE LAS DALIAS N 11.304                                                                           000000000           00000123600000000001
000MARIA FLORENCIA                 01/02/1996                      0S1395288128            27395288127000000000008080330014POSADAS                       AV ZAPIOLA N 6816                                                                                   000000000           00000167420000000001
000MARIA EUGENIA                   29/12/1986                      0C1326085038            27326085036000000000008080330014POSADAS                       B ITAEMBE MINI CALLE 166                                                                            000000000           00000165460000000001
000MAIRA LINA                      19/02/2002                      0S1440128118            23440128114000000000008080330414GARUPA                        B SANTA CRUZ MZ H 174                                                                               000000000           00000196550000000001
000MARIANA MICAELA                 22/07/2000                      0S1427611858            27427611855000000000008080330014POSADAS                       AV ZABALA 2789                                                                                      000000000           00000188220000000001
000MARCELO GASTON                  14/11/2000                      0S1430234818            20430234812000000000008080337014PUERTO IGUAZU                 B VILLA TACUARA                                                                                     000000000           00000188560000000001
000RODRIGO LEONARDO                02/11/2001                      0S1440122618            20440122613000000000008080337014PUERTO IGUAZU                 CALLE COSTA RICA S/N                                                                                000000000           00000193660000000001
000FLORENCIA LEONOR                14/05/1998                      0S1412318678            27412318671000000000008080337814PUERTO ESPERANZA              AV 20 DE JUNIO S/N                                                                                  000000000           00000181490000000001
000MAXIMILIANO ARIEL               07/03/1998                      0S1410318298            20410318297000000000008080337814PUERTO ESPERANZA              CALLE CORDOBA S/N                                                                                   000000000           00000181290000000001
000MILAGROS YANELA                 18/02/2001                      0S1435285058            27435285053000000000008080337814PUERTO ESPERANZA              CALLE MARIO MARTINEZ S/N                                                                            000000000           00000199750000000001
000DAMIAN DARIO                    29/05/2000                      0S1427166238            20427166237000000000008080337014PUERTO IGUAZU                 CALLE MARMELERO S/N|                                                                                000000000           00000187390000000001
000ADRIAN ALEJANDRO                19/04/1999                      0S1418783748            20418783746000000000008080337614WANDA                         B LAPACHILLO CALLE TUCUMAN                                                                          000000000           00000176240000000001
000JOAQUIN EDUARDO                 29/01/1995                      0S1385658428            20385658428000000000008080337814PUERTO ESPERANZA              B ALEGRE                                                                                            000000000           00000176050000000001
000JEAN LUCAS                      05/08/1997                      0S1403426998            20403426998000000000008080337814PUERTO ESPERANZA              CALLE SAN LUIS S/N                                                                                  000000000           00000181470000000001
000NERIO                           13/05/1997                      0S1400430438            20400430439000000000008080337814PUERTO ESPERANZA              CALLE SAN FRANCISCO                                                                                 000000000           00000193720000000001
000KATERIN FABIANA                 28/01/1999                      0S1413052578            27413052577000000000008080337814PUERTO ESPERANZA              B 8 DE DICIEMBRE ANT. ARG. S/N                                                                      000000000           00000184340000000001
000ISAIAS                          01/01/1993                      0S1375823658            23375823659000000000008080337014PUERTO IGUAZU                 CALLE VERA PEÑALOZA Y RUCCI                                                                         000000000           00000170240000000001
000DAVID ARMANDO                   12/08/1989                      0C1344531078            20344531073000000000008080337014PUERTO LIBERTAD               B SANTO DOMINGO                                                                                     000000000           00000171600000000001
000CESAR GABRIEL                   02/12/2000                      0S1430714938            20430714938000000000008080330014POSADAS                       CALLE 129 MZ 20                                                                                     000000000           00000196460000000001
000CLARA YOHANA                    20/10/1999                      0S1422052368            23422052364000000000008080330014POSADAS                       B 8 DE ABRIL CALLE 172 A                                                                            000000000           00000200160000000001
000FELIPE ALEJANDRO                26/05/1984                      0C1306196048            23306196049000000000008080330014POSADAS                       CH 227 CALLE 124 Y 63                                                                               000000000           00000134000000000001
