AMS10052023AM02007250200ADICIONAL POLICIA           
9223372036854775807000                                                                00000000  000             000000000000000000000                                                                                                                                  000000000           00000000000000000001
9223372036854775807000                                                                00000000  000             000000000000000000000                                                                                                                                  000000000           00000000000000000001
9223372036854775807000                                                                00000000  000             000000000000000000000                                                                                                                                  000000000           00000000000000000001
9223372036854775807000                                                                00000000  000             000000000000000000000                                                                                                                                  000000000           00000000000000000001
9223372036854775807000                                                                00000000  000             000000000000000000000                                                                                                                                  000000000           00000000000000000001
9223372036854775807000                                                                00000000  000             000000000000000000000                                                                                                                                  000000000           00000000000000000001
9223372036854775807000                                                                00000000  000             000000000000000000000                                                                                                                                  000000000           00000000000000000001
9223372036854775807000                                                                00000000  000             000000000000000000000                                                                                                                                  000000000           00000000000000000001
9223372036854775807000                                                                00000000  000             000000000000000000000                                                                                                                                  000000000           00000000000000000001
9223372036854775807000                                                                00000000  000             000000000000000000000                                                                                                                                  000000000           00000000000000000001
9223372036854775807000                                                                00000000  000             000000000000000000000                                                                                                                                  000000000           00000000000000000001
9223372036854775807000                                                                00000000  000             000000000000000000000                                                                                                                                  000000000           00000000000000000001
9223372036854775807000                                                                00000000  000             000000000000000000000                                                                                                                                  000000000           00000000000000000001
9223372036854775807000                                                                00000000  000             000000000000000000000                                                                                                                                  000000000           00000000000000000001
9223372036854775807000                                                                00000000  000             000000000000000000000                                                                                                                                  000000000           00000000000000000001
9223372036854775807000                                                                00000000  000             000000000000000000000                                                                                                                                  000000000           00000000000000000001
9223372036854775807000                                                                00000000  000             000000000000000000000                                                                                                                                  000000000           00000000000000000001
9223372036854775807000                                                                00000000  000             000000000000000000000                                                                                                                                  000000000           00000000000000000001
9223372036854775807000                                                                00000000  000             000000000000000000000                                                                                                                                  000000000           00000000000000000001
