AMS05052023AM02007250200ADICIONAL POLICIA           
000001014GIMENEZ                         MARLENE JAQUELIN                11011985FS00132035948     080027320359487330014POSADAS                       CALLE S/N                                                                                           000000000           00000000120000000001
000002054BADO                            LUCAS DANIEL                    15091997MS00140708009     080020407080093330014POSADAS                       CALLE 141 CASA 7988                                                                                 000000000           00000000180000000001
000003037BARRETO                         GUILLERMO ALEJANDRO             10061998MS00141294712     080020412947127330014POSADAS                       CARLOS MADELAIRE 7052                                                                               000000000           00000000190000000001
000004021VAZQUEZ                         CESAR ARIEL                     24072000MS00142810825     080020428108257338014ELDORADO                      AV. PARAGUAY Y CALLE ARROYO                                                                         000000000           00000000190000000001
000005037BARRIENTOS                      CRISTIAN JOSE                   10061998MS00141273830     080020412738307330014POSADAS                       ALMEIDA 1781 B° MIGUEL LANUS                                                                        000000000           00000000190000000001
000006014BOGADO                          JUAN MANUEL                     26041977MC00125977840     080023259778409330414GARUPA                        B° FATIMA MZ 65 CASA 02                                                                             000000000           00000000090000000001
000007037AGUILERA                        ENZO ADRIAN BAUTISTA            15082001MS00143282592     080020432825923330014POSADAS                       CORONEL ALVAREZ 2332                                                                                000000000           00000000190000000001
000008021BENITEZ                         MAXIMILIANO NAHUEL              10041998MS00141151440     080020411514405330014POSADAS                       CALLE 78 A MZ P CASA 34 CH 130 STA RITA                                                             000000000           00000000190000000001
000009054AMARO                           FLORENCIA LISETTE               19091998FS00141304175     080027413041754330014POSADAS                       B° ÑUPORA AV ROTH CASI CEIBO                                                                        000000000           00000000190000000001
000010054SOTO                            ISMAEL JOAQUIN                  21062002MS00144652718     080020446527186330414GARUPA                        B° EL PORVENIR 1                                                                                    000000000           00000000190000000001
000011021FERREYRA                        YASMIN BELEN                    25071996MS00139529393     080027395293937331514L.N.ALEM                      CALLE BUENOS AIRES                                                                                  000000000           00000000180000000001
000012054MERELES                         MARIA NOEMI                     19102000MS00142967165     080027429671650330914COLONIA GUARANI               CALLE ANTARTIDA Y ARGENTINA                                                                         000000000           00000000190000000001
000013054PORCIUNCULA ZANABRIA            DANIEL                          03121996MS00151217819     080020512178198331514L.N.ALEM                      B° CAMPORA                                                                                          000000000           00000000180000000001
000014021DAVALOS                         JORGE GASTON                    18122001MS00143944139     080023439441399330014POSADAS                       AV LAS HERAS 4963                                                                                   000000000           00000000190000000001
000015014FRAGA                           ALBERTO ENRIQUE                 25101989MC00134895316     080020348953169330014POSADAS                       CALLE TAMAREU, CASA 26, B° YACIRETÁ                                                                 000000000           00000000150000000001
